:100000000C9491000C94B9000C94B9000C94B900B4
:100010000C94B9000C94B9000C94B9000C947C0DAC
:100020000C94B9000C94B9000C94B9000C94B9006C
:100030000C94B9000C94B9000C94B9000C94B9005C
:100040000C94BB020C94B9000C94730E0C944D0EDE
:100050000C94B9000C94B9000C94B9000C94B9003C
:100060000C9405030C94B90008000000BE922449CA
:10007000123EABAAAA2ABECDCCCC4C3E00000080DA
:10008000BEABAAAAAA3E00000000BF000000803F4D
:100090000000000000084178D3BB4387D1133D190D
:1000A0000E3CC3BD4282AD2B3E68EC8276BED98F3A
:1000B000E1A93E4C80EFFFBE01C4FF7F3F0000007E
:1000C00000000000000023002600290000000008B6
:1000D000000201000003040700000000000000000F
:1000E00000000000240027002A000102040810205C
:1000F00040800102040810200102040810200000C2
:100100000000250028002B00040404040404040457
:100110000202020202020303030303030200141398
:100120005E1111241FBECFEFD8E0DEBFCDBF12E0BD
:10013000A0E0B1E0EAE4F8E302C005900D92AA3B2A
:10014000B107D9F725E0AAEBB2E001C01D92AC35AA
:10015000B207E1F710E0C0E9D0E004C02197FE014A
:100160000E946317CF38D107C9F70E9470110C9411
:10017000181C0C940000FC01918D228D892F90E0B9
:10018000805C9F4F821B91098F739927089580E0AF
:1001900090E0892B29F00E948A0C81110C940000B8
:1001A0000895833081F028F4813099F08230A1F0F5
:1001B00008958730A9F08830B9F08430D1F4809167
:1001C00080008F7D03C0809180008F7780938000B6
:1001D000089584B58F7702C084B58F7D84BD08955E
:1001E0008091B0008F7703C08091B0008F7D8093A5
:1001F000B00008958E3008F08E5087708064809330
:100200007C0080917A00806480937A0080917A00EB
:1002100086FDFCCF809178002091790090E0922BB0
:1002200008953FB7F8948091700490917104A09163
:100230007204B091730426B5A89B05C02F3F19F036
:100240000196A11DB11D3FBFBA2FA92F982F882756
:10025000820F911DA11DB11DBC01CD0142E0660FB1
:10026000771F881F991F4A95D1F7089585ED8093D0
:10027000BC008091BC0084FDFCCF10927A040895EC
:1002800040912404262F30E0240F311D2132310506
:10029000DCF420917A042430C9F4FC0180E090E081
:1002A000861758F4309124042191DC01AC5FBB4FD8
:1002B000A30FB11D2C930196F3CF80912404680FF6
:1002C0006093240480E0089581E0089582E0089519
:1002D000089508950895E0917E0480917D04E817C3
:1002E00030F4F0E0EC51FC4F808190E008958FEF06
:1002F0009FEF089590917E0480917D04981750F4AB
:10030000E92FF0E0EC51FC4F208130E09F5F9093AB
:100310007E0402C02FEF3FEFC901089580917D0454
:1003200090E020917E04821B91090895CF92DF9284
:10033000EF92FF920F931F93CF93DF937C01CB013A
:100340008A012091E303222389F0EB016B01C40EA3
:10035000D51ECC15DD0569F06991D701ED91FC91B1
:100360000190F081E02DC7010995F3CF642F0E9421
:100370004001C801DF91CF911F910F91FF90EF9045
:10038000DF90CF900895CF93DF931F92CDB7DEB764
:1003900069832091E3032223D1F020917B04203252
:1003A00040F021E030E0FC013383228380E090E0E4
:1003B00015C080917C04E82FF0E0ED53FC4F99814B
:1003C00090838F5F80937C0480937B0405C061E001
:1003D000CE0101960E94400181E090E00F90DF91F4
:1003E000CF910895089580E090E0089588EC92E020
:1003F0004FEF51E0FC0120E130E040835283215077
:100400003109339621153105C1F7C09623E08838AC
:10041000920781F70895109294031092930381E05C
:1004200090E090939A038093990310929C0310920A
:100430009B038FE090E0909392038093910310923E
:100440009E0310929D030E94B91322E030E040E029
:1004500050E00E9407157093900360938F030895F6
:10046000FC01848DDF01A80FB11DA35ABF4F2C9151
:10047000848D90E001968F739927848FA689B78920
:100480002C93A089B1898C91837080648C93938D17
:10049000848D981306C00288F389E02D80818F7DBA
:1004A000808308951F93CF93DF93282F30E0F901C5
:1004B000E453FF4F8491F901E651FF4FD491F901C4
:1004C000E85FFE4FC491CC23C1F0162F81110E942A
:1004D000D100EC2FF0E0EE0FFF1FE250FF4FA5918F
:1004E000B4919FB7F894111104C08C91D095D82382
:1004F00002C0EC91DE2BDC939FBFDF91CF911F9167
:1005000008958F929F92AF92BF92CF92DF92EF9217
:10051000FF926B017C010E9411014B015C01C1142F
:10052000D104E104F104F1F00E941101DC01CB01DE
:1005300088199909AA09BB09883E9340A105B1050C
:1005400070F321E0C21AD108E108F10888EE880EA4
:1005500083E0981EA11CB11CC114D104E104F10474
:1005600019F7DDCFFF90EF90DF90CF90BF90AF9065
:100570009F908F9008951F920F920FB60F921124A3
:100580002F933F938F939F93AF93BF9380916C046E
:1005900090916D04A0916E04B0916F0430916B0442
:1005A00023E0230F2D3720F40196A11DB11D05C0B6
:1005B00026E8230F0296A11DB11D20936B048093A2
:1005C0006C0490936D04A0936E04B0936F048091BB
:1005D000700490917104A0917204B091730401961B
:1005E000A11DB11D8093700490937104A0937204B7
:1005F000B0937304BF91AF919F918F913F912F91D1
:100600000F900FBE0F901F9018951F920F920FB66C
:100610000F9211242F933F934F935F936F937F9388
:100620008F939F93AF93BF93EF93FF938091B90004
:10063000887F803609F49CC068F5883209F45BC075
:1006400090F4803109F454C038F4882309F4F6C0DA
:10065000883009F44DC0F6C0883109F44CC08032AE
:1006600009F45DC0EFC0803409F468C048F48033F9
:1006700009F455C0883309F0E5C080934704D8C019
:10068000803509F44FC0883509F45DC0883409F01D
:10069000D9C0D6C0883909F4C7C0A8F4883709F48E
:1006A00067C038F4883609F463C0803709F460C045
:1006B000C9C0883809F4B8C0803909F45FC08038EF
:1006C00009F0C0C05BC0803B09F486C038F4803AB2
:1006D00009F466C0883A09F47FC0B4C0803C09F4CC
:1006E000A7C0883C09F4A4C0883B09F48AC0AAC00A
:1006F00080916A0410C090916904809168049817F1
:1007000070F5E091690481E08E0F80936904F0E058
:10071000E85BFB4F80818093BB0085EC86C08093B3
:1007200047048EC0E091690481E08E0F80936904D4
:100730008091BB00F0E0E85BFB4F808390916904FF
:10074000809168046EC0E091690481E08E0F80930F
:1007500069048091BB00F0E0E85BFB4F80838091EF
:10076000790481116DC081E08093780484EA61C0CE
:1007700083E080937A0410924604CFCF80914604A0
:10078000803208F051C0E091460481E08E0F8093E2
:1007900046048091BB00F0E0EA5DFB4F8083BDCF53
:1007A00085EC8093BC0010927A04809146048032DC
:1007B00030F4E0914604F0E0EA5DFB4F1082609176
:1007C000460470E0E0917404F091750486E294E0D0
:1007D00009951092460436C084E080937A04109202
:1007E000250410922404E0917604F0917704099591
:1007F00080912404811105C081E08093240410922B
:100800000404E091250481E08E0F80932504F0E03C
:10081000EC5FFB4F80818093BB0090912504809119
:100820002404981708F479CF85E88093BC000AC0A7
:1008300085EC8093BC0010927A0404C010924704A7
:100840000E943601FF91EF91BF91AF919F918F91DF
:100850007F916F915F914F913F912F910F900FBEBC
:100860000F901F901895CF93FC01C48121E0209335
:10087000E303C093C20310927C0410927B0483852F
:10088000682B84E295E00E94C30190917B04913231
:1008900008F045C080917A048111FCCF82E08093FA
:1008A0007A0481E0809379048FEF8093470410925B
:1008B000690490936804A3ECB3E0E8E4F4E080E01A
:1008C000981721F02D9121938F5FFACF10926A042F
:1008D00080916A04CC0FC82BC0936A04809178047D
:1008E000813061F41092780480916A048093BB0097
:1008F0008091BC0083FDF8CF85EC01C085EE80932C
:10090000BC0080917A048230E1F3809147048F3FEC
:1009100031F080914704803211F0809147041092A9
:100920007C0410927B041092E303CF9108950F93FF
:100930001F93CF938C01C62F0E9433046C2F6460E9
:10094000C8010E9433046C2F6B7FC8010E943304DE
:1009500083EC90E00197F1F7CF911F910F910895EB
:100960000F931F93CF93DF938C01C62FD42F607FFB
:10097000642B0E94970480E1C89FB00111246D2B65
:10098000C801DF91CF911F910F910C94970441E022
:100990000E94B00481E090E00895BF92CF92DF9270
:1009A000EF92FF920F931F93CF93DF9388ECC82EA3
:1009B00082E0D82EC8E2D3E08601B12CE12CF12CE4
:1009C0006E2D8B2D0E94B00E81E0E816F10491F49B
:1009D000F80160816F3F29F480A98F3F31F460E214
:1009E00018C080E395E00E94C704F80160A96F3F3A
:1009F00079F41AC068816F3F21F488A98F3F29F4E8
:100A0000EECF80E395E00E94C70468A96F3F29F00C
:100A1000646080E395E00E94C704FFEFEF1AFF0ACD
:100A200082E0E816F10461F60D5F1F4F2396B39440
:100A3000E0E1BE12C3CF48E853E088EC92E061E009
:100A400020E030E0FC01E20FF31F62832D5F3F4F97
:100A500020333105B9F7C0964817590789F708EFD1
:100A600012E0C0E0D0E0F601EC0FFD1F8081823083
:100A700079F030F4882351F0813089F463E20BC0BF
:100A8000833041F08F3F59F46EE205C06FE503C03B
:100A90006EE501C061E287E894E00E94D80DE0961F
:100AA000C03CD10501F76AEC71E087E894E00E9450
:100AB000ED0DF3E0CF0ED11C0C151D0591F66AEC7F
:100AC00071E087E894E0DF91CF911F910F91FF9043
:100AD000EF90DF90CF90BF900C94ED0D0E94F60147
:100AE0001092F5021092C6021092C50210928D0368
:100AF00010928C031092C7020C94CD04CF93DF9315
:100B0000E1EDF0E08491EFEEF0E0D491EDE0F1E082
:100B1000C491CC23A1F081110E94D100EC2FF0E010
:100B2000EE0FFF1FEE53FF4FA591B491EC91ED2313
:100B300031E020E009F430E0832F922F02C080E002
:100B400090E021E08227817080937F0480E10E9401
:100B5000FA009093C0028093BF02883C910514F480
:100B600080E204C0893393401CF080E1809300014F
:100B700081E10E94FA009093C2028093C102883CF6
:100B800091051CF41092000106C0893393401CF0BB
:100B900084E080930001DF91CF9108952F923F92DE
:100BA0004F925F926F927F928F929F92AF92BF927D
:100BB000CF92DF92EF92FF920F931F93CF93DF9329
:100BC00064E871E081E00E943E116CE771E082E030
:100BD0000E943E1164E771E083E00E943E116CE6E2
:100BE00071E084E00E943E1164E671E085E00E94BD
:100BF0003E116CE571E086E00E943E1164E571E013
:100C000087E00E943E116CE471E088E00E943E1192
:100C10000E940B021092C1031092B00381E08093F6
:100C20009F0322242394312C08EC10E090EBE92E52
:100C300093E0F92E20E1C22ED12C32E0832E912CAC
:100C4000A12CB12C80919F03882309F473C10E94C9
:100C50007E0520910001243091F038F4211119C053
:100C600030929E0320929D0314C080919B0390912B
:100C70009C03203149F0203261F4019706C01092A4
:100C80009E0310929D0305C0019690939C03809350
:100C90009B0380919B0390919C0397FF04C010924B
:100CA0009C0310929B0380919B0390919C03893C31
:100CB000910524F010939C0300939B03609199038A
:100CC00070919A03072E000C880B990B0E94121446
:100CD00024E538EF4DE250E40E94A2152B013C01BF
:100CE00060919B0370919C03072E000C880B990B5D
:100CF0000E9412149B01AC01C301B2010E94A21513
:100D00000E94BE169B01AC018FB7F89440906C0412
:100D100050906D0460906E0470906F048FBF60E01F
:100D200070E08FE294E40E940E160E948016AB01E0
:100D3000770F660B770B8091950390919603A091A6
:100D40009703B0919803840F951FA61FB71F4816ED
:100D500059066A067B0608F475CF80939503909335
:100D60009603A0939703B0939803C0919303D091F7
:100D70009403CE0101969093940380939303C170E2
:100D8000DD27E0EAF3E086E0209721F495E0908308
:100D9000818B04C097E0908398E0918B3196EE169A
:100DA000FF0691F7809191039091920397FF65C0A0
:100DB00020919D0330919E0380918F039091900329
:100DC0002817390709F040C0C3E0D0E088EC90E074
:100DD0000E94DF0E64E670E080E090E00E948102F5
:100DE00084E00E94510D64E670E080E090E00E9493
:100DF0008102219759F70E94A50E60E080E00E94D1
:100E0000B00E6DEC71E080E395E00E944B0E61E066
:100E100080E00E94B00E6CE972E080E395E00E94F1
:100E20004B0E6091990370919A0380E395E00E94C4
:100E3000F5100E940B0268EB7BE080E090E00E94DE
:100E4000810210929F03FECE0E94B913A501940166
:100E50000E9407157093900360938F038FE090E0DA
:100E600090939203809391038091990390919A03B8
:100E7000019690939A038093990320919D0330915A
:100E80009E03209729F42115310539F042E008C06E
:100E90002115310521F044E003C041E001C043E0E9
:100EA00051E1529FC001539F900D1124FC01E05667
:100EB000FC4F47878091910390919203B601681B84
:100EC000790B20918F0330919003CD2B29F42115BC
:100ED000310539F0E2E008C02115310521F0E4E0E8
:100EE00003C0E1E001C0E3E0F1E1F29FA001F39F64
:100EF000500D112440565C4FDA01A60FB71FEC933A
:100F00000197909392038093910360E080E00E94A8
:100F1000B00E60EA73E080E395E00E944B0E61E062
:100F200080E00E94B00E61EB73E080E395E00E94E8
:100F30004B0E88CEDF91CF911F910F91FF90EF90D4
:100F4000DF90CF90BF90AF909F908F907F906F90E9
:100F50005F904F903F902F9008950E947E05809162
:100F60007F04882331F081E090E09093C402809365
:100F7000C3020895C4EED1E00AEB12E0FF24FA9414
:100F80000E947E0560E080E00E94B00E60EE71E09D
:100F900080E395E00E944B0E8091C2028F93809176
:100FA000C1028F93DF93CF931F930F930E94651914
:100FB0006AEB72E080E395E00E944B0E61E080E016
:100FC0000E94B00E69EE71E080E395E00E944B0E46
:100FD0008091C0028F938091BF028F93DF93CF9354
:100FE0001F930F930E9465196AEB72E080E395E00E
:100FF0000E944B0E60E088E00E94B00E6DEE71E042
:1010000080E395E00E944B0E8DB79EB70C960FB60D
:10101000F8949EBF0FBE8DBF80917F04811103C0E5
:101020006CED71E002C068ED71E080E395E00E9434
:101030004B0E61E088E00E94B00E61EF71E080E34A
:1010400095E00E944B0E80910001843081F028F4DD
:10105000811110C061E072E00FC0803129F0803250
:1010600049F46BEF71E008C065EF71E005C067E01F
:1010700072E002C06DE072E080E395E00E944B0EEA
:10108000809100018F3F11F0F092000180917F0468
:10109000882329F088EC90E00E94DF0E71CF84E075
:1010A0000E94510D6DCFCF93DF93EC01623091F030
:1010B00038F4662361F0613099F46FE172E012C098
:1010C000633059F06F3F61F463E172E00BC068E197
:1010D00072E008C065E272E005C065E372E002C03C
:1010E00064E472E0CE010E94030DCE01DF91CF9146
:1010F00008953F924F925F926F927F928F929F924C
:10110000AF92BF92CF92DF92EF92FF920F931F9315
:10111000CF93DF9300D000D000D0CDB7DEB75C0115
:101120006B018A010E94AD0704301105C1F03CF447
:10113000012BF9F4C501019764E070E013C00031A0
:10114000110541F000321105A1F476013FEFE31AD9
:10115000F30A10C0760121E0E21AF1080BC0C501C4
:101160000196B8010E943B178C010370112776018C
:1011700002C0760185014601880C991CF401EC0D32
:10118000FD1D20E32A9DC0012B9D900D1124E80F29
:10119000F91FE853FD4F50803701660C771CD301CF
:1011A000AE0DBF1D209FC001219F900D1124A80FDF
:1011B000B91FA853BD4F8C9140E1E416F10440F1F2
:1011C0008FEF80831282652DCE0101960E94530815
:1011D000BE016F5F7F4F87E894E00E94DF0D898139
:1011E0009A810E9401186CE472E087E894E00E9402
:1011F0004B0EB80187E894E00E94F5106FE572E0AD
:1012000087E894E00E944B0EC7010E942B114AC050
:10121000511004C08F3F09F4CFC007C0811145C0F1
:101220005FEF551609F4C8C002C0811103C00A2D32
:10123000EC2C01C0582E652DCE0101960E9453085A
:10124000BE016F5F7F4F87E894E00E94DF0D8981C8
:101250009A810E94011861E672E087E894E00E949A
:101260004B0E402F50E060E070E02AE087E894E009
:101270000E94020E6FE572E087E894E00E944B0E38
:101280004E2D50E060E070E02AE087E894E00E9494
:10129000020E6AEC71E087E894E00E94ED0D81E0B7
:1012A0008093C7028FEF9FEFF1C0823039F48FEF48
:1012B000581609F481C03A2C4C2C09C092E05912FE
:1012C0007BC08F3F09F478C0302E4E2C582EF4018D
:1012D000EC0DFD1D30E33A9DC0013B9D900D1124A6
:1012E000E80FF91FE853FD4F2FEF20831282F3011F
:1012F000EE0DFF1D309FC001319F900D1124E80FAE
:10130000F91FE853FD4F2083128280918C03909146
:101310008D03019690938D0380938C0384EF91E06D
:101320000E94DF0E62E370E080E090E00E948102A4
:1013300084E00E94510D62E370E080E090E00E9442
:10134000810264E772E087E894E00E944B0E652D0D
:10135000CE0101960E945308BE016F5F7F4F87E860
:1013600094E00E94DF0D89819A810E9401186FE646
:1013700072E087E894E00E944B0E432D50E060E05D
:1013800070E02AE087E894E00E94020E6FE572E0C8
:1013900087E894E00E944B0E442D50E060E070E03E
:1013A0002AE087E894E00E94020E6AEC71E087E888
:1013B00094E00E94ED0D76CF6E0C7F1C20E3209F01
:1013C000C001219F900D1124860D971DFC01E8534B
:1013D000FD4F3F018C0C9D1C2A9DC0012B9D900D43
:1013E0001124880D991D9C0128533D4F4901F90195
:1013F00080819181A281F30180839183A28363E83C
:1014000072E087E894E00E944B0E652DCE010196B4
:101410000E945308BE016F5F7F4F87E894E00E94EF
:10142000DF0D89819A810E9401186AE872E087E8DD
:1014300094E00E944B0EB50187E894E00E94F510FD
:101440006FE572E087E894E00E944B0EB60187E8F2
:1014500094E00E94F5106AE572E087E894E00E944B
:101460004B0EB80187E894E00E94F5106FE572E03A
:1014700087E894E00E944B0EC7010E942B118FEF6A
:10148000F40180831282F3011282C80126960FB6FE
:10149000F894DEBF0FBECDBFDF91CF911F910F91AA
:1014A000FF90EF90DF90CF90BF90AF909F908F9084
:1014B0007F906F905F904F903F9008954F925F9212
:1014C0006F927F928F929F92AF92BF92CF92DF9254
:1014D000EF92FF920F931F93CF93DF9364E471E039
:1014E00081E00E943E116CE371E085E00E943E11B4
:1014F00064E371E080E00E943E116CE271E084E000
:101500000E943E1164E271E082E00E943E116CE1B3
:1015100071E086E00E943E1164E171E083E00E9488
:101520003E116CE071E087E00E943E110E946E0562
:1015300081E080938E03882483949AE0492E512C75
:10154000612C712C23E0922E80918E03882309F464
:1015500073C10E94AD0760918C0370918D03072EBB
:10156000000C880B990B0E94121424E538EF4DE211
:1015700050E40E94A2150E94BE169B01AC018FB7D9
:10158000F894C0906C04D0906D04E0906E04F090DC
:101590006F048FBF60E070E08FE294E40E940E164B
:1015A0000E948016AB01770F660B770B8091880342
:1015B00090918903A0918A03B0918B03840F951FAA
:1015C000A61FB71FC816D906EA06FB0608F4BCCF4B
:1015D0008093880390938903A0938A03B0938B032D
:1015E00088ECC82E82E0D82E560100E010E075018C
:1015F000C0E0D0E0F70182818823F1F18081813061
:1016000061F50E94B91325E030E040E050E00E940F
:101610000715161617066CF0CF30D10551F0F701FB
:101620008381833031F040E250E0BE01C8010E9466
:1016300079080E94B91323E030E040E050E00E94B6
:1016400007156115710519F440E050E00FC06130D5
:10165000710581F444E050E009C0833019F440E2A0
:1016600050E004C0823031F440E150E0BE01C801D6
:101670000E9479080E94AD072196F3E0EF0EF11C5D
:10168000C031D10509F0B6CF0F5F1F4F80E3A80E20
:10169000B11C0430110509F0AACF8091C70288233C
:1016A00009F44EC00E94F6010E94CD0460E080E083
:1016B0000E94B00E6DEC71E080E395E00E944B0E4D
:1016C00061E080E00E94B00E6CE972E080E395E09A
:1016D0000E944B0E60918C0370918D0380E395E026
:1016E0000E94F51061E972E087E894E00E944B0ED9
:1016F00080918C0390918D030E942B11C3E0D0E068
:1017000088EC90E00E94DF0E64E670E080E090E0FC
:101710000E94810284E00E94510D64E670E080E046
:1017200090E00E948102219759F768EB7BE080E00E
:1017300090E00E9481020E946E0510928E0304CFF9
:101740000E94AD0780910001843019F444E050E01C
:1017500004C0811111C040E050E06FE070E0809162
:10176000C5029091C6020E9479089093C6028093A8
:10177000C5028FEF809300010E94AD078091C302E4
:101780009091C402892B91F08091C5029091C6027C
:1017900020E3289FF001299FF00D1124E853FD4F0D
:1017A00082E082A71092C4021092C3020E94AD0789
:1017B000E8ECF2E0C1E080818F3F09F0C0E0F096F4
:1017C00083E0E838F807B9F70E94B913CC2381F019
:1017D000A30192010E940715643071054CF420E3C7
:1017E000269FF001279FF00D1124E853FD4F8082C2
:1017F0000E94AD07E60108E010E08881813049F4DD
:101800000E94B913A30192010E940715672B09F4E6
:101810009B820150110923960115110571F7E0E330
:10182000CE0ED11CF8E8CF16F3E0DF0619F70E94C0
:10183000AD070E94CD0488CEDF91CF911F910F910B
:10184000FF90EF90DF90CF90BF90AF909F908F90E0
:101850007F906F905F904F900895CF92DF92EF92BC
:10186000FF920F931F93CF93DF936C017A018B014B
:10187000C0E0D0E0CE15DF0581F0D8016D918D017B
:10188000D601ED91FC910190F081E02DC601099502
:10189000892B11F02196EECF7E01C701DF91CF9108
:1018A0001F910F91FF90EF90DF90CF900895FC0172
:1018B000538D448D252F30E0842F90E0821B930BB5
:1018C000541710F0CF96089501970895FC01918D5B
:1018D000828D981761F0828DDF01A80FB11D5D9692
:1018E0008C91928D9F5F9F73928F90E008958FEF00
:1018F0009FEF0895FC01918D828D981731F0828DB4
:10190000E80FF11D858D90E008958FEF9FEF08950A
:101910000E94501987E894E00E94BB0021E0892BC7
:1019200009F420E0822F0895EF92FF920F931F9306
:10193000CF93DF93EC0181E0888F9B8D8C8D981382
:1019400005C0E889F989808185FD26C0F62E0B8DBA
:1019500010E00F5F1F4F0F731127E02E8C8DE812E0
:101960000CC00FB607FCFACFE889F989808185FFA2
:10197000F5CFCE010E943002F1CF8B8DFE01E80F32
:10198000F11DE35AFF4FF0829FB7F8940B8FEA895D
:10199000FB89808180620AC09FB7F894EE89FF8935
:1019A0006083E889F98980818370806480839FBF28
:1019B00081E090E0DF91CF911F910F91FF90EF9028
:1019C0000895CF93DF93EC01888D8823C9F0EA89CD
:1019D000FB89808185FD05C0A889B9898C9186FD28
:1019E0000FC00FB607FCF5CF808185FFF2CFA88925
:1019F000B9898C9185FFEDCFCE010E943002E7CFEF
:101A0000DF91CF910895EF92FF920F931F93CF93A1
:101A1000DF93EC01198218821B821A821D821C82BC
:101A200061157105B9F17B01FB0101900020E9F717
:101A300031978F01061B170BB8016F5F7F4F80E056
:101A400090E00E948A18009759F0998388831B833D
:101A50000A832C813D81232B81F4FC0110820DC06F
:101A600088819981009711F00E94011819821882CB
:101A70001D821C821B821A820DC01D830C83B7013C
:101A800088819981DF91CF911F910F91FF90EF9005
:101A90000C945E19DF91CF911F910F91FF90EF9001
:101AA000089590910101891324C0ECE1F1E0E491E3
:101AB0009FEF90930101E130B9F098F0E230C9F462
:101AC000909170009D7F9093700091E09093B00092
:101AD0009091B100987F94609093B1001092B30000
:101AE00008C010926E0005C090916F009D7F90938A
:101AF0006F0060E00C9452021F920F920FB60F928B
:101B000011242F933F934F935F936F937F938F9302
:101B10009F93AF93BF93EF93FF9380918304909132
:101B20008404A0918504B0918604892B8A2B8B2B89
:101B300051F190918004E0918104F09182048081C0
:101B4000892780838091830490918404A0918504E7
:101B5000B0918604181619061A061B06C4F4809163
:101B6000830490918404A0918504B0918604019728
:101B7000A109B1098093830490938404A093850400
:101B8000B093860404C0809101010E94510DFF9121
:101B9000EF91BF91AF919F918F917F916F915F91E5
:101BA0004F913F912F910F900FBE0F901F9018955E
:101BB000DC01ED91FC910190F081E02D0994DB01B5
:101BC00014964D915C9115976D917C91DC01ED918E
:101BD000FC910280F381E02D09946115710579F083
:101BE000FB0101900020E9F73197AF01461B570B2D
:101BF000DC01ED91FC910280F381E02D099480E0FD
:101C000090E008958F929F92AF92BF92EF92FF92D1
:101C10000F931F93CF93DF93CDB7DEB7A1970FB686
:101C2000F894DEBF0FBECDBF7C01FA01CB0119A233
:101C3000223008F42AE08E010F5D1F4F822E912C76
:101C4000A12CB12CBF01A50194010E947015F901CE
:101C5000CA01015011096A3014F4605D01C0695C69
:101C6000D8016C93232B242B252B61F7B801C701D6
:101C70000E94ED0DA1960FB6F894DEBF0FBECDBF4A
:101C8000DF91CF911F910F91FF90EF90BF90AF9098
:101C90009F908F9008950C94ED0D1F920F920FB6A8
:101CA0000F9211242F933F934F935F936F937F93E2
:101CB0008F939F93AF93BF93EF93FF9387E894E045
:101CC0000E943002FF91EF91BF91AF919F918F9150
:101CD0007F916F915F914F913F912F910F900FBE28
:101CE0000F901F9018951F920F920FB60F9211240C
:101CF0002F938F939F93EF93FF93E0919704F0912D
:101D000098048081E0919D04F0919E0482FD12C0B0
:101D100090818091A0048F5F8F732091A10482171E
:101D200051F0E091A004F0E0E957FB4F958F8093CC
:101D3000A00401C08081FF91EF919F918F912F911D
:101D40000F900FBE0F901F90189540E061E080E368
:101D500095E00E94B0048BE39FE10197F1F70895AD
:101D6000CF93DF93CDB7DEB728970FB6F894DEBFD9
:101D70000FBECDBF98E0E2E9F1E0DE0111960190DF
:101D80000D929A95E1F790913805961710F46FEF40
:101D9000690FFE013196E60FF11DE60FF11D60811E
:101DA000680F606840E080E395E028960FB6F894ED
:101DB000DEBF0FBECDBFDF91CF910C94B0048F92E8
:101DC0009F92AF92BF92CF92DF92EF92FF92CF930A
:101DD00020910101243021F02F3F09F0FCC104C003
:101DE000ECE1F1E0C4916BC024E020930101ECE14F
:101DF000F1E0C491CF3F09F4EEC1C13009F440C015
:101E000030F1C23009F05BC01092B0001092B10006
:101E10002091B00022602093B0002091B100216099
:101E20002093B100ECE0F1E0E491F0E0EE0FFF1F51
:101E3000E250FF4F25913491309382042093810426
:101E4000EEEEF0E0E491E0938004C2E03AC014BC0E
:101E500015BC24B5226024BD25B5216025BDECE06C
:101E6000F1E0E491F0E0EE0FFF1FE250FF4F25910B
:101E70003491EEEEF0E0E491E0934F05C0E021C034
:101E800010928000109281002091810028602093A0
:101E9000810020918100216020938100ECE0F1E03D
:101EA000E491F0E0EE0FFF1FE250FF4F25913491D7
:101EB000EEEEF0E0E491E0934E05C1E002C0C7FD14
:101EC0008AC1EEEEF0E04491ECE0F1E024912223AF
:101ED00099F030E0220F331FF901E052FF4FA59136
:101EE000B491F901E250FF4F259134912FB7F89446
:101EF000EC91E42BEC932FBF4C01A12CB12C8C2F37
:101F00008D7F09F098C060E072E18AE790E0A5015A
:101F100094010E94071569017A01BA01A901415093
:101F20005109610971094F3F51056105710509F0BA
:101F300008F445C060E472E48FE090E0A5019401EC
:101F40000E940715BA01A90141505109610971099F
:101F5000C230E9F44F3F51056105710509F008F4FD
:101F6000DAC060E970ED83E090E0A50194010E9481
:101F70000715BA01A90141505109610971094F3F83
:101F800051056105710509F020F583E04DC04F3F13
:101F9000510561057105A9F0A0F068E478EE81E0D3
:101FA00090E0A50194010E940715BA01A9014150D2
:101FB000510961097109CC2309F4AFC004C181E062
:101FC00001C082E0C11130C095B5987F892B85BDD5
:101FD00066C068E478EE81E090E0A50194010E947B
:101FE0000715BA01A90141505109610971094F3F13
:101FF00051056105710509F008F48BC064E274EFC6
:1020000080E090E0A50194010E940715BA01A901A2
:1020100041505109610971094F3F51056105710531
:1020200011F008F0A9C085E09091B100987F892B4C
:102030008093B1002EC060E072E18AE790E0A501D4
:1020400094010E940715BA01A90141505109610983
:1020500071094115510581E06807710580F068E458
:1020600078EE81E090E0A50194010E940715BA0185
:10207000A901415051096109710983E001C081E062
:10208000C13039F490918100987F892B8093810031
:1020900018C0C130B1F0C23049F1C1119CC047BD78
:1020A0008FEF9FEFDC018093540590935505A0932B
:1020B0005605B093570580916E00826080936E0044
:1020C0008AC050938900409388008FEF9FEFDC0116
:1020D0008093500590935105A0935205B0935305FA
:1020E00080916F00826080936F0075C04093B30051
:1020F0008FEF9FEFDC018093830490938404A0937F
:102100008504B09386048091700082608093700093
:1021100062C084E089CF82E087CF4F3F51056105DF
:10212000710541F138F162E17AE780E090E0A501C4
:1021300094010E940715BA01A90141505109610992
:1021400071094F3F51056105710591F088F0D70184
:10215000C6013AE0B595A795979587953A95D1F739
:10216000AC01BD01415051096109710985E02CCFD5
:1021700084E02ACF83E028CF62E17AE780E090E034
:10218000A50194010E940715BA01A9014150510906
:10219000610971094F3F51056105710591F088F0A2
:1021A000D701C6012AE0B595A795979587952A95F9
:1021B000D1F7AC01BD01415051096109710987E0B6
:1021C00033CF86E031CF4F3F51056105710509F0EE
:1021D00098F684E0F7CECF91FF90EF90DF90CF900C
:1021E000BF90AF909F908F900895CF92DF92EF9223
:1021F000FF920F931F93CF93DF936B01770FEE083E
:10220000FF08F7FE1BC0EC016DE20E94D80D8C01A7
:1022100044275527BA014C195D096E097F092AE048
:10222000CE010E94020E800F911FDF91CF911F916E
:102230000F91FF90EF90DF90CF9008952AE0B701C3
:10224000A601DF91CF911F910F91FF90EF90DF904A
:10225000CF900C94020ECF93DF93BC0187E894E0FB
:102260000E94F510EC016AEC71E087E894E00E94AE
:10227000ED0D8C0F9D1FDF91CF9108950F931F934C
:10228000CF93DF938B01877098E0899FB001112471
:10229000606440E080E395E00E94B004E801085FDC
:1022A0001F4F699180E395E00E94C704C017D107D2
:1022B000C1F7DF91CF911F910F910895CF93DF93D5
:1022C000CCE3D5E08C859D850E9401188E819F818D
:1022D0000E94011888819981DF91CF910C94011897
:1022E000789484B5826084BD84B5816084BD85B5F1
:1022F000826085BD85B5816085BD80916E008160FD
:1023000080936E00109281008091810082608093A2
:1023100081008091810081608093810080918000A4
:102320008160809380008091B10084608093B100CF
:102330008091B00081608093B00080917A008460C9
:1023400080937A0080917A00826080937A008091F5
:102350007A00816080937A0080917A00806880930F
:102360007A001092C100E0919704F091980482E005
:102370008083E0919304F09194041082E09195049D
:10238000F09196048FEC808310929F04E0919B045F
:10239000F0919C0486E08083E0919904F0919A0486
:1023A000808180618083E0919904F0919A0480811A
:1023B00088608083E0919904F0919A04808180681C
:1023C0008083E0919904F0919A0480818F7D8083CD
:1023D00010927E0410927D0410927C0410927B0473
:1023E00010927A0481E0809379041092780461E07D
:1023F00082E10E94520261E083E10E9452028091D8
:10240000B9008E7F8093B9008091B9008D7F809351
:10241000B90088E48093B80085E48093BC0088E626
:1024200091E0909377048093760489E691E090930D
:102430007504809374041092350580913A058230BA
:1024400018F098E0909335058093380562E370E0CA
:1024500080E090E00E94810260913B0580E395E07E
:102460000E94330468EE73E080E090E00E948102F5
:1024700060E380E395E00E949704CBE4D6E4CE01CC
:102480000197F1F760E380E395E00E9497042197BC
:10249000F1F760E380E395E00E94970483E592E022
:1024A0000197F1F760E280E395E00E949704609164
:1024B0003505606240E080E395E00E94B00484E06E
:1024C0008093360540E06CE080E395E00E94B00424
:1024D0000E94A50E82E08093370540E066E080E32D
:1024E00095E00E94B00440E062E080E395E00E9445
:1024F000B0048BE39FE10197F1F788E080933B05FF
:1025000060E080E395E00E943304EFEEF0E0249178
:10251000EDE0F1E084918823C1F090E0880F991FED
:10252000FC01E052FF4FC591D491FC01E250FF4FF6
:10253000A591B4919FB7F8948881E22FE0958E23FE
:1025400088838C91E823EC939FBF61E085E00E9433
:102550005202C0E0D0E096E0F92EEE24EA9403E0C7
:1025600010E060E080E00E94B00E64EA72E080E378
:1025700095E00E944B0EFC9EB001FD9E700D112453
:10258000645C7A4F80E395E00E94DF0DC230D10594
:10259000B9F061E080E00E94B00E69EF71E080E385
:1025A00095E00E944B0ECE010196F89EB001F99E77
:1025B000700D1124645C7A4F80E395E00E94DF0D7A
:1025C000809100018F3F41F06CE271E080E090E08B
:1025D0000E948102E09200010E947E05809100012C
:1025E000882329F0843049F4CE01029602C0CE013E
:1025F0000196B8010E943B17EC0180917F0488236B
:1026000059F0FE01EE0FFF1FE457FE4F0190F081DD
:10261000E02D09950E94A50E809100018F3F09F4DD
:10262000A0CF0E94A50E9DCFE7E8F4E013821282AE
:1026300088EE93E0A0E0B0E084839583A683B7831F
:102640002EE931E03183208325EC30E03587248783
:1026500024EC30E03787268720EC30E0318B208B6C
:1026600021EC30E0338B228B22EC30E0358B248B55
:1026700026EC30E0378B268B118E128E138E148E43
:10268000E4E2F5E01382128284839583A683B78304
:1026900080EB91E09183808367EA72E08CE395E0C0
:1026A0000E94030D60EB72E082E495E00E94030D4E
:1026B00065EB72E088E495E00E94030DE0E3F5E04D
:1026C0001382128282EC91E09183808387E284837B
:1026D00080E1818782E08287138608958F929F929E
:1026E000AF92BF92CF92DF92EF92FF92CF93DF93A0
:1026F000EC01688179818A819B8161157105810571
:10270000910521F464E279ED8BE597E02DE133EF5B
:1027100041E050E00E94071549015A019B01AC01BC
:10272000A7EAB1E40E9426156B017C01ACEEB4EF80
:10273000A50194010E943415DC01CB018C0D9D1D77
:10274000AE1DBF1DB7FF03C00197A109B048888324
:102750009983AA83BB83BC01CD019F77DF91CF9181
:10276000FF90EF90DF90CF90BF90AF909F908F90B1
:1027700008958F929F92AF92BF92CF92DF92EF9285
:10278000FF92609102017091030180910401909188
:102790000501611571058105910521F464E279ED6A
:1027A0008BE597E02DE133EF41E050E00E94071503
:1027B00049015A019B01AC01A7EAB1E40E94261528
:1027C0006B017C01ACEEB4EFA50194010E943415BD
:1027D000DC01CB018C0D9D1DAE1DBF1DB7FF03C0DD
:1027E0000197A109B0488093020190930301A0933F
:1027F0000401B0930501BC01CD019F77FF90EF90DC
:10280000DF90CF90BF90AF909F908F90089560938E
:1028100002017093030180930401909305010895D0
:10282000E89409C097FB3EF490958095709561956A
:102830007F4F8F4F9F4F9923A9F0F92F96E9BB2720
:102840009395F695879577956795B795F111F8CF9C
:10285000FAF4BB0F11F460FF1BC06F5F7F4F8F4F07
:102860009F4F16C0882311F096E911C0772321F0FD
:102870009EE8872F762F05C0662371F096E8862F95
:1028800070E060E02AF09A95660F771F881FDAF7EC
:10289000880F9695879597F908950E94BF1438F090
:1028A0000E94C61420F0952311F00C94B6140C94D9
:1028B000BC1411240C9401150E94DE1470F3959F32
:1028C000C1F3950F50E0551F629FF001729FBB2727
:1028D000F00DB11D639FAA27F00DB11DAA1F649FC3
:1028E0006627B00DA11D661F829F2227B00DA11D76
:1028F000621F739FB00DA11D621F839FA00D611DFC
:10290000221F749F3327A00D611D231F849F600D1C
:10291000211D822F762F6A2F11249F5750409AF045
:10292000F1F088234AF0EE0FFF1FBB1F661F771FD1
:10293000881F91505040A9F79E3F510580F00C949C
:10294000B6140C9401155F3FE4F3983ED4F38695DA
:1029500077956795B795F795E7959F5FC1F7FE2B3C
:10296000880F911D9695879597F9089597F99F6718
:1029700080E870E060E008959FEF80EC0895002407
:102980000A941616170618060906089500240A94D4
:1029900012161306140605060895092E0394000C5A
:1029A00011F4882352F0BB0F40F4BF2B11F460FFE9
:1029B00004C06F5F7F4F8F4F9F4F089557FD905812
:1029C000440F551F59F05F3F71F04795880F97FBF3
:1029D000991F61F09F3F79F08795089512161306AD
:1029E0001406551FF2CF4695F1DF08C016161706DC
:1029F0001806991FF1CF8695710561050894089511
:102A0000E894BB2766277727CB0197F90895052E11
:102A100097FB1EF400940E941E1557FD07D00E94DC
:102A2000701507FC03D04EF40C941E15509540957C
:102A3000309521953F4F4F4F5F4F0895909580956A
:102A4000709561957F4F8F4F9F4F08950E9492150B
:102A5000A59F900DB49F900DA49F800D911D1124F2
:102A60000895B7FF0C9426150E942615821B930B20
:102A700008952F923F924F925F926F927F928F9222
:102A80009F92AF92BF92CF92DF92EF92FF920F93FD
:102A90001F93CF93DF93CDB7DEB7CA1BDB0B0FB607
:102AA000F894DEBF0FBECDBF09942A8839884888C4
:102AB0005F846E847D848C849B84AA84B984C8845A
:102AC000DF80EE80FD800C811B81AA81B981CE0F51
:102AD000D11D0FB6F894DEBF0FBECDBFED01089536
:102AE000A1E21A2EAA1BBB1BFD010DC0AA1FBB1F12
:102AF000EE1FFF1FA217B307E407F50720F0A21B84
:102B0000B30BE40BF50B661F771F881F991F1A94F0
:102B100069F760957095809590959B01AC01BD011A
:102B2000CF010895A29FB001B39FC001A39F700D74
:102B3000811D1124911DB29F700D811D1124911DC5
:102B400008955058BB27AA270E94B9150C94CD149C
:102B50000E94BF1438F00E94C61420F039F49F3F41
:102B600019F426F40C94BC140EF4E095E7FB0C94D5
:102B7000B614E92F0E94DE1458F3BA1762077307E0
:102B80008407950720F079F4A6F50C9400150EF44F
:102B9000E0950B2EBA2FA02D0B01B90190010C016D
:102BA000CA01A0011124FF27591B99F0593F50F485
:102BB000503E68F11A16F040A22F232F342F4427DD
:102BC000585FF3CF469537952795A795F0405395D5
:102BD000C9F77EF41F16BA0B620B730B840BBAF0A5
:102BE0009150A1F0FF0FBB1F661F771F881FC2F710
:102BF0000EC0BA0F621F731F841F48F48795779524
:102C00006795B795F7959E3F08F0B0CF9395880FDD
:102C100008F09927EE0F9795879508950E94221640
:102C20000C94CD140E94C61458F00E94BF1440F0BA
:102C300029F45F3F29F00C94B61451110C9401153E
:102C40000C94BC140E94DE1468F39923B1F355234D
:102C500091F3951B550BBB27AA27621773078407AF
:102C600038F09F5F5F4F220F331F441FAA1FA9F345
:102C700035D00E2E3AF0E0E832D091505040E69533
:102C8000001CCAF72BD0FE2F29D0660F771F881F94
:102C9000BB1F261737074807AB07B0E809F0BB0B87
:102CA000802DBF01FF2793585F4F3AF09E3F51059B
:102CB00078F00C94B6140C9401155F3FE4F3983E41
:102CC000D4F3869577956795B795F7959F5FC9F784
:102CD000880F911D9695879597F90895E1E0660F05
:102CE000771F881FBB1F621773078407BA0720F07E
:102CF000621B730B840BBA0BEE1F88F7E0950895E7
:102D00000E9487166894B1110C94011508950E94D1
:102D1000E61488F09F5798F0B92F9927B751B0F073
:102D2000E1F0660F771F881F991F1AF0BA95C9F74F
:102D300014C0B13091F00E940015B1E008950C94D8
:102D40000015672F782F8827B85F39F0B93FCCF38B
:102D5000869577956795B395D9F73EF490958095CC
:102D6000709561957F4F8F4F9F4F089516F00C948B
:102D700006170C94BC1468940C94B6140E94E614C4
:102D8000A8F39923C1F3AEF3DF93CF931F930F936F
:102D9000FF92C92FDD2788232AF02197660F771F1E
:102DA000881FDAF720E030E040E85FEB9FE38839E6
:102DB00020F0803E38F021968F770E94A215E8E639
:102DC000F0E004C00E94A215E5E9F0E00E941417AB
:102DD0008B01BE01EC01FB2E6F5771097595771FB2
:102DE000880B990B0E94121428E132E741E35FE35C
:102DF0000E945C14AF2D9801AE01FF900F911F91BE
:102E0000CF91DF910E94B9150C94CD149F3F31F002
:102E1000915020F4879577956795B795880F911D08
:102E20009695879597F90895DF93CF931F930F9306
:102E3000FF92EF92DF927B018C01689406C0DA2E3C
:102E4000EF010E945C14FE01E894A5912591359153
:102E500045915591A6F3EF010E94B915FE01970126
:102E6000A801DA9469F7DF90EF90FF900F911F911E
:102E7000CF91DF91089597FB072E16F4009407D0A9
:102E800077FD09D00E944F1707FC05D03EF49095BE
:102E900081959F4F0895709561957F4F0895AA1B66
:102EA000BB1B51E107C0AA1FBB1FA617B70710F035
:102EB000A61BB70B881F991F5A95A9F78095909567
:102EC000BC01CD010895EE0FFF1F0590F491E02D98
:102ED00009940F931F93CF93DF938230910510F4E1
:102EE00082E090E0E0915A05F0915B0520E030E04F
:102EF000A0E0B0E0309719F1408151810281138147
:102F000048175907C8F08417950769F4109731F0EE
:102F100012960C93129713961C9327C000935A0590
:102F200010935B0522C02115310519F04217530794
:102F300018F49A01BD01EF01DF01F801DBCF211583
:102F40003105F9F0281B390B2430310580F48A81D2
:102F50009B816115710521F0FB019383828304C07D
:102F600090935B0580935A05FE01329644C0FE01A2
:102F7000E20FF31F81939193225031093983288303
:102F80003AC02091580530915905232B41F42091E6
:102F9000080130910901309359052093580520917B
:102FA0000601309107012115310541F42DB73EB7D7
:102FB00040910A0150910B01241B350BE0915805FB
:102FC000F0915905E217F307A0F42E1B3F0B2817C9
:102FD000390778F0AC014E5F5F4F2417350748F092
:102FE0004E0F5F1F5093590540935805819391935D
:102FF00002C0E0E0F0E0CF01DF91CF911F910F918F
:103000000895CF93DF93009709F481C0FC013297B4
:1030100013821282A0915A05B0915B05109781F43A
:1030200020813181820F931F2091580530915905DD
:103030002817390751F5F0935905E093580567C0F3
:10304000ED0120E030E0CE17DF0740F44A815B81DC
:103050009E0141155105F1F0EA01F5CFD383C283FA
:1030600040815181840F951FC817D90759F4888171
:103070009981840F951F0296918380838A819B8119
:10308000938382832115310529F4F0935B05E09346
:103090005A053DC0E901FB83EA8349915991C40F68
:1030A000D51FEC17FD0761F480819181840F951F76
:1030B0000296E90199838883828193819B838A8325
:1030C000E0E0F0E012968D919C911397009719F033
:1030D000FD01DC01F7CF8D919C9111979D012E5F31
:1030E0003F4F820F931F20915805309159052817A3
:1030F000390769F4309729F410925B0510925A054C
:1031000002C013821282B0935905A0935805DF9133
:10311000CF910895A0E0B0E0E0E9F8E10C943D150E
:10312000EC01009721F4CB010E946917B4C0FC01A7
:10313000E60FF71F9C0122503109E217F30708F44C
:10314000A8C0D9010D911C91119706171707B0F06F
:103150000530110508F49BC0C8010497861797072E
:1031600008F495C002501109061B170B0193119327
:103170006D937C93CF010E94011889C05B01A01A56
:10318000B10A4C01800E911EA0915A05B0915B05C9
:10319000612C712CE12CF12C109709F446C08D9113
:1031A0009C911197A815B905B1F56C0142E0C40EC8
:1031B000D11CCA14DB0478F14C018A189B08640105
:1031C00042E0C40ED11C1296BC9012971396AC919B
:1031D000B5E0CB16D10440F0B282A3839182808205
:1031E000D9016D937C9309C00E5F1F4F800F911F13
:1031F000F90191838083EB2DFA2FE114F10431F072
:10320000D7011396FC93EE93129741C0F0935B05A0
:10321000E0935A053CC06816790608F43C017D012C
:1032200012960D90BC91A02DB7CF8091580590912A
:10323000590588169906E1F466167706C8F4809158
:10324000060190910701009741F48DB79EB7409118
:103250000A0150910B01841B950BE817F907C8F47C
:10326000F0935905E0935805F901718360830FC00D
:10327000CB010E9469177C01009759F0A801BE019B
:103280000E945519CE010E940118C70104C0CE0149
:1032900002C080E090E0CDB7DEB7EEE00C945915A7
:1032A00081E090E0F8940C94181CFB01DC0102C052
:1032B00001900D9241505040D8F70895FB01DC0178
:1032C00001900D920020E1F70895AEE0B0E0EBE64A
:1032D000F9E10C9447150D891E8986E08C831A83C9
:1032E00009838FEF9FE79E838D83AE01475E5F4F1B
:1032F0006F89788DCE0101960E948719EF81F8853C
:10330000E00FF11F10822E96E4E00C946315ABE001
:10331000B0E0EDE8F9E10C9439156C017B018A010C
:10332000FC0117821682838181FFCCC1CE010196F8
:103330003C01F6019381F70193FD859193FF819103
:103340007F01882309F4BAC1853239F493FD859150
:1033500093FF81917F01853229F4B60190E00E94AC
:103360007E1BE7CF912C212C312CFFE1F315D8F0F7
:103370008B3279F038F4803279F08332A1F4232D46
:1033800020611DC08D3261F0803369F4232D2160EE
:1033900016C0832D8260382EE32DE4603E2E2AC0B5
:1033A000F32DF8601DC037FC2DC020ED280F2A300A
:1033B00040F08E32B9F436FC81C1232D2064322EC8
:1033C00019C036FE06C08AE0989E200D1124922E68
:1033D00011C0EAE02E9E200D1124222EF32DF06262
:1033E0003F2E08C08C3621F4832D8068382E02C011
:1033F000883641F4F70193FD859193FF81917F0118
:103400008111B3CF982F9F7D9554933028F40C5F92
:103410001F4F9FE399830DC0833631F0833771F0DE
:10342000833509F059C021C0F801808189830E5F7E
:103430001F4F88248394912C530113C02801F2E07C
:103440004F0E511CF801A080B18036FE03C0692DDB
:1034500070E002C06FEF7FEFC5010E94731B4C014B
:103460008201F32DFF773F2E16C0280122E0420E85
:10347000511CF801A080B18036FE03C0692D70E0B8
:1034800002C06FEF7FEFC5010E94681B4C01F32D56
:10349000F0683F2E820133FC1BC0822D90E088161D
:1034A0009906B0F4B60180E290E00E947E1B2A9457
:1034B000F4CFF50137FC859137FE81915F01B601AC
:1034C00090E00E947E1B21102A9421E0821A91082C
:1034D0008114910471F7E8C0843611F0893641F502
:1034E000F80137FE07C060817181828193810C5F92
:1034F0001F4F08C060817181072E000C880B990B4B
:103500000E5F1F4FF32DFF763F2E97FF09C090955A
:103510008095709561957F4F8F4F9F4FF0683F2E3C
:103520002AE030E0A3010E94BA1B882E861845C00D
:10353000853731F4232D2F7EB22E2AE030E025C0CE
:10354000932D997FB92E8F36C1F018F4883579F014
:10355000B5C0803719F0883721F0B0C0E92FE0619D
:10356000BE2EB4FE0DC0FB2DF460BF2E09C034FE8C
:103570000AC0292F2660B22E06C028E030E005C020
:1035800020E130E002C020E132E0F801B7FE07C0E0
:1035900060817181828193810C5F1F4F06C06081C1
:1035A000718180E090E00E5F1F4FA3010E94BA1B63
:1035B000882E8618FB2DFF773F2E36FE0DC0232D5B
:1035C0002E7FA22E891458F434FE0BC032FC09C0A1
:1035D000832D8E7EA82E05C0B82CA32C03C0B82C3A
:1035E00001C0B92CA4FE0FC0FE01E80DF11D8081C1
:1035F000803321F49A2D997EA92E09C0A2FE06C01F
:10360000B394B39404C08A2D867809F0B394A3FCD4
:1036100011C0A0FE06C0B21488F4280C922C9B188E
:103620000EC0B21460F4B60180E290E00E947E1BEE
:10363000B394F7CFB21418F42B1802C0982C212C95
:10364000A4FE10C0B60180E390E00E947E1BA2FEA3
:1036500017C0A1FC03C088E790E002C088E590E0B5
:10366000B6010CC08A2D867859F0A1FE02C08BE20B
:1036700001C080E2A7FC8DE2B60190E00E947E1BB3
:10368000891438F4B60180E390E00E947E1B9A947E
:10369000F7CF8A94F301E80DF11D8081B60190E027
:1036A0000E947E1B8110F5CF222009F442CEB60184
:1036B00080E290E00E947E1B2A94F6CFF60186817C
:1036C000978102C08FEF9FEF2B96E2E10C94551586
:1036D000FC010590615070400110D8F780959095DD
:1036E0008E0F9F1F0895FC016150704001900110E2
:1036F000D8F7809590958E0F9F1F08950F931F9375
:10370000CF93DF93FB01238121FD03C08FEF9FEF58
:103710002CC022FF16C04681578124813581421773
:10372000530744F4A081B1819D012F5F3F4F318346
:1037300020838C93268137812F5F3F4F37832683E9
:1037400014C08B01EC01FB010084F185E02D09958B
:10375000892BE1F6D80116968D919C9117970196C9
:1037600017969C938E931697CE01DF91CF911F9160
:103770000F910895FA01AA27283051F1203181F1E3
:10378000E8946F936E7F6E5F7F4F8F4F9F4FAF4F69
:10379000B1E03ED0B4E03CD0670F781F891F9A1F7C
:1037A000A11D680F791F8A1F911DA11D6A0F711D30
:1037B000811D911DA11D20D009F468943F912AE03C
:1037C000269F11243019305D3193DEF6CF01089524
:1037D000462F4770405D4193B3E00FD0C9F7F6CF55
:1037E000462F4F70405D4A3318F0495D31FD40521D
:1037F000419302D0A9F7EACFB4E0A69597958795B3
:1038000077956795BA95C9F7009761057105089591
:103810009B01AC010A2E069457954795379527953D
:10382000BA95C9F7620F731F841F951FA01D0895D5
:1038300010E0C0E9D0E004C0FE010E9463172196A9
:0A384000C139D107C9F7F894FFCF92
:10384A00FFFF0100000000005C058000000215086F
:10385A0000000000000000000215080000000E0031
:10386A000000000000000000000E00000303070330
:10387A00030000000000000303070303160B0E0BEE
:10388A0016000000000000160B0E0B1600000000C8
:10389A000000000A0A00000000000000000000000A
:1038AA0000000014140000000000000000000009DD
:1038BA001E09000A0A0000091E090000000000098A
:1038CA001E090014140000091E0900005E0ACE0534
:1038DA00BA07000040001400540000000000940CD5
:1038EA002D0C570CE10CBB00660C7A0C0000000092
:1038FA00C3019601F3016A018E017A016B0100008E
:10390A000000C7042D0CF301F2010D0A0047414DD6
:10391A0045204F56455221004F4E20004F46460043
:10392A00583A20002530346400593A2000533A208E
:10393A0000443A2000555020202000444F574E2082
:10394A00004C45465420005249474854004E4F4EB9
:10395A004520006E6F6E6500706C6179657200615A
:10396A006C69656E00706C61796572277320627587
:10397A006C6C657400616C69656E27732062756C86
:10398A006C657400756E6B6E6F776E00206D6F7666
:10399A006564206F75747369646520746F20002CE8
:1039AA0000206B696C6C656420706C6179657220AB
:1039BA0061742000706C61796572206B696C6C654A
:1039CA006420006D6F76656420002066726F6D203A
:1039DA000047414D45204F564552212053434F52EF
:1039EA00453A20003E2000496E7661646572730094
:0A39FA00526163650044656D6F00C3
:107E0000112484B714BE81FFF0D085E080938100F7
:107E100082E08093C00088E18093C10086E0809377
:107E2000C20080E18093C4008EE0C9D0259A86E02C
:107E300020E33CEF91E0309385002093840096BBD3
:107E4000B09BFECF1D9AA8958150A9F7CC24DD24C4
:107E500088248394B5E0AB2EA1E19A2EF3E0BF2EE7
:107E6000A2D0813461F49FD0082FAFD0023811F036
:107E7000013811F484E001C083E08DD089C08234E0
:107E800011F484E103C0853419F485E0A6D080C0E4
:107E9000853579F488D0E82EFF2485D0082F10E0AE
:107EA000102F00270E291F29000F111F8ED06801E7
:107EB0006FC0863521F484E090D080E0DECF843638
:107EC00009F040C070D06FD0082F6DD080E0C81688
:107ED00080E7D80618F4F601B7BEE895C0E0D1E017
:107EE00062D089930C17E1F7F0E0CF16F0E7DF06D8
:107EF00018F0F601B7BEE89568D007B600FCFDCFD4
:107F0000A601A0E0B1E02C9130E011968C91119780
:107F100090E0982F8827822B932B1296FA010C0160
:107F200087BEE89511244E5F5F4FF1E0A038BF0790
:107F300051F7F601A7BEE89507B600FCFDCF97BE46
:107F4000E89526C08437B1F42ED02DD0F82E2BD052
:107F50003CD0F601EF2C8F010F5F1F4F84911BD097
:107F6000EA94F801C1F70894C11CD11CFA94CF0C13
:107F7000D11C0EC0853739F428D08EE10CD085E9AC
:107F80000AD08FE07ACF813511F488E018D01DD067
:107F900080E101D065CF982F8091C00085FFFCCF94
:107FA0009093C60008958091C00087FFFCCF809118
:107FB000C00084FD01C0A8958091C6000895E0E648
:107FC000F0E098E1908380830895EDDF803219F02E
:107FD00088E0F5DFFFCF84E1DECF1F93182FE3DFCA
:107FE0001150E9F7F2DF1F91089580E0E8DFEE27F6
:047FF000FF270994CA
:027FFE00040479
:0400000300007E007B
:00000001FF
